:100000000C942A000C943C000C943C000C943C0092
:100010000C943C000C943C000C943C000C942E037B
:100020000C943C000C943C000C943C000C94DC02BE
:100030000C943C000C943C000C943C000C943C0050
:100040000C945B000C943C000C943C000C943C0021
:100050000C943C0011241FBECFE5D8E0DEBFCDBF1D
:1000600020E0A0E6B0E001C01D92AF36B207E1F794
:100070000E9470020C948D030C9400003F983E9AED
:100080003D98389A359A86B1876086B93398379A01
:100090000895369A349BFECF64B144EF51E0649FDB
:1000A0009001659F300D1124232F26952695FC0184
:1000B0002083118208951F920F920FB60F92112480
:1000C0002F933F934F938F939F9344B124EF31E04D
:1000D000429FC001439F900D1124892F990F990BC6
:1000E0008595859590936100809360009F918F9195
:1000F0004F913F912F910F900FBE0F901F90189529
:1001000041E063E082E00E94B60041E064E082E00A
:100110000E94B6000C946603882319F0813041F0E8
:10012000089541E063E082E00E941B0140E006C0C8
:1001300040E063E082E00E941B0141E064E082E075
:100140000C941B01880F982F990F990F890F90E03D
:100150000C946B030C94750341E063E082E00E9411
:100160001B0141E064E082E00C941B01442379F11F
:10017000413009F05FC0813079F028F08230A9F079
:100180008330E1F008952AB381E090E001C0880F48
:100190006A95EAF7822B2CC027B381E090E001C07A
:1001A000880F6A95EAF7822B2EC024B381E090E095
:1001B00001C0880F6A95EAF7822B30C021B381E035
:1001C00090E001C0880F6A95EAF7822B32C0813037
:1001D00089F028F08230C9F0833011F108952AB3F4
:1001E00081E090E001C0880F6A95EAF7809582234C
:1001F0008ABB089527B381E090E001C0880F6A951B
:10020000EAF78095822387BB089524B381E090E0CC
:1002100001C0880F6A95EAF78095822384BB089510
:1002200021B381E090E001C0880F6A95EAF78095DC
:10023000822381BB0895442379F1413009F05FC0E6
:10024000813079F028F08230A9F08330E1F0089510
:100250002BB381E090E001C0880F6A95EAF7822B0A
:100260002CC028B381E090E001C0880F6A95EAF7BE
:10027000822B2EC025B381E090E001C0880F6A95E3
:10028000EAF7822B30C022B381E090E001C0880FF2
:100290006A95EAF7822B32C0813089F028F08230EB
:1002A000C9F0833011F108952BB381E090E001C0D3
:1002B000880F6A95EAF7809582238BBB089528B34F
:1002C00081E090E001C0880F6A95EAF7809582236B
:1002D00088BB089525B381E090E001C0880F6A953E
:1002E000EAF78095822385BB089522B381E090E0F0
:1002F00001C0880F6A95EAF78095822382BB089532
:10030000CF93C82F40E061E081E00E941B0140E0F4
:1003100062E081E00E941B0140E063E081E00E9416
:100320001B018BB39C2F907F8F70892B8BBB41E07F
:1003300063E081E00E941B018FEC97E00197F1F7E9
:1003400000C0000040E063E081E00E941B012BB38D
:1003500030E1C39FC0011124922F9F70892B8BBB6A
:1003600041E063E081E00E941B018FEC97E0019780
:10037000F1F700C0000040E063E081E00E941B0153
:100380008FE097E20197F1F700C00000CF91089548
:1003900041E061E081E00E94B60041E062E081E07E
:1003A0000E94B60041E063E081E00E94B60041E0B7
:1003B00064E080E00E94B60041E065E080E00E94D9
:1003C000B60041E066E080E00E94B60041E067E0F0
:1003D00080E00E94B6002FEF80E792E0215080403D
:1003E0009040E1F700C0000083E30E94800182E3B7
:1003F0000E94800188E20E9480018CE00E948001BE
:1004000081E00E94800186E00E94800182E00C94DD
:100410008001CF93C82F41E061E081E00E941B0181
:1004200040E062E081E00E941B0140E063E081E087
:100430000E941B018BB39C2F907F8F70892B8BBBED
:1004400041E063E081E00E941B018FEC97E001979F
:10045000F1F700C0000040E063E081E00E941B0172
:100460002BB330E1C39FC0011124922F9F70892BC1
:100470008BBB41E063E081E00E941B018FEC97E0C1
:100480000197F1F700C0000040E063E081E00E94C6
:100490001B018FE097E20197F1F700C00000CF91B8
:1004A00008959C012B5031092A30310510F483E066
:1004B00007C09C01255131092530310518F485E02C
:1004C0000C94A2009C012A5131092530310510F409
:1004D00088E0F6CF4F9710F08AE0F2CF0C94AC0092
:1004E000CF93DF9300D0CDB7DEB741E065E083E086
:1004F0000E94B6000E94C8011A8219820E94D80286
:100500000E9480000E94B702CE0101960E94DA028A
:10051000CE0101960E94510281E00E94D302182F61
:100520008823D9F090E00E940902113411F441E0CF
:1005300003C0113631F440E065E083E00E941B0106
:100540000CC0123431F480E00E948C000E94AA009A
:1005500004C0123611F40E94AC002FEF89E698E136
:10056000215080409040E1F700C00000CDCF41E035
:1005700066E081E00E94B60040E065E081E00E9414
:10058000B60040E064E081E00E94B60040E067E031
:1005900081E00E94B600689869986A986B986C9898
:1005A0006D986E9A08958FB9779BFECF8FB108959D
:1005B0000C943E000C9449001F920F920FB60F92BC
:1005C00011242F933F934F935F936F937F938F9358
:1005D0009F93AF93BF93EF93FF93809164009091AB
:1005E0006500A0916600B09167000196A11DB11D44
:1005F0008093640090936500A0936600B0936700B9
:10060000409168005091690060916A0070916B00A0
:1006100084179507A607B70781F480916C0082BF05
:1006200010926400109265001092660010926700AC
:10063000E0916D00F0916E000995FF91EF91BF91EF
:10064000AF919F918F917F916F915F914F913F916A
:100650002F910F900FBE0F901F9018951F920F9221
:100660000FB60F9211242F933F934F935F936F9385
:100670007F938F939F93AF93BF93EF93FF9380915B
:1006800062009091630001968130910529F090936A
:1006900063008093620009C01092630010926200B0
:1006A000E0916D00F0916E000995FF91EF91BF917F
:1006B000AF919F918F917F916F915F914F913F91FA
:1006C0002F910F900FBE0F901F901895BB9A83B774
:1006D000886683BF089520E0982F822F64E670E03B
:1006E0000E94790361506CBF089583B7816083BF16
:1006F0000895AA1BBB1B51E107C0AA1FBB1FA61769
:10070000B70710F0A61BB70B881F991F5A95A9F7BA
:0E07100080959095BC01CD010895F894FFCF1F
:00000001FF
