S00C00004D435F322E73726563F7
S11300000C942A000C943C000C943C000C943C008E
S11300100C943C000C943C000C943C000C9456034F
S11300200C943C000C943C000C943C000C94040391
S11300300C943C000C943C000C943C000C943C004C
S11300400C945B000C943C000C943C000C943C001D
S11300500C943C0011241FBECFE5D8E0DEBFCDBF19
S113006020E0A0E6B0E001C01D92AF36B207E1F790
S11300700E9470020C94A9050C9400003F983E9ACB
S11300803D98389A359A86B1876086B93398379AFD
S11300900895369A349BFECF64B144EF51E0649FD7
S11300A09001659F300D1124232F26952695FC0180
S11300B02083118208951F920F920FB60F9211247C
S11300C02F933F934F938F939F9344B124EF31E049
S11300D0429FC001439F900D1124892F990F990BC2
S11300E08595859590936100809360009F918F9191
S11300F04F913F912F910F900FBE0F901F90189525
S113010041E064E082E00E94B60041E065E082E004
S11301100E94B6000C948E03882319F0813041F0BC
S1130120089541E064E082E00E941B0140E006C0C3
S113013040E064E082E00E941B0141E065E082E06F
S11301400C941B01880F982F990F990F890F90E039
S11301500C9493030C949D0341E064E082E00E94BC
S11301601B0141E065E082E00C941B01442379F11A
S1130170413009F05FC0813079F028F08230A9F075
S11301808330E1F008952AB381E090E001C0880F44
S11301906A95EAF7822B2CC027B381E090E001C076
S11301A0880F6A95EAF7822B2EC024B381E090E091
S11301B001C0880F6A95EAF7822B30C021B381E031
S11301C090E001C0880F6A95EAF7822B32C0813033
S11301D089F028F08230C9F0833011F108952AB3F0
S11301E081E090E001C0880F6A95EAF78095822348
S11301F08ABB089527B381E090E001C0880F6A9517
S1130200EAF78095822387BB089524B381E090E0C8
S113021001C0880F6A95EAF78095822384BB08950C
S113022021B381E090E001C0880F6A95EAF78095D8
S1130230822381BB0895442379F1413009F05FC0E2
S1130240813079F028F08230A9F08330E1F008950C
S11302502BB381E090E001C0880F6A95EAF7822B06
S11302602CC028B381E090E001C0880F6A95EAF7BA
S1130270822B2EC025B381E090E001C0880F6A95DF
S1130280EAF7822B30C022B381E090E001C0880FEE
S11302906A95EAF7822B32C0813089F028F08230E7
S11302A0C9F0833011F108952BB381E090E001C0CF
S11302B0880F6A95EAF7809582238BBB089528B34B
S11302C081E090E001C0880F6A95EAF78095822367
S11302D088BB089525B381E090E001C0880F6A953A
S11302E0EAF78095822385BB089522B381E090E0EC
S11302F001C0880F6A95EAF78095822382BB08952E
S1130300CF93C82F40E061E081E00E941B0140E0F0
S113031062E081E00E941B0140E063E081E00E9412
S11303201B018BB39C2F907F8F70892B8BBB41E07B
S113033063E081E00E941B018FEC97E00197F1F7E5
S113034000C0000040E063E081E00E941B012BB389
S113035030E1C39FC0011124922F9F70892B8BBB66
S113036041E063E081E00E941B018FEC97E001977C
S1130370F1F700C0000040E063E081E00E941B014F
S11303808FE097E20197F1F700C00000CF91089544
S113039041E061E081E00E94B60041E062E081E07A
S11303A00E94B60041E063E081E00E94B60041E0B3
S11303B064E080E00E94B60041E065E080E00E94D5
S11303C0B60041E066E080E00E94B60041E067E0EC
S11303D080E00E94B6002FEF80E792E02150804039
S11303E09040E1F700C0000083E30E94800182E3B3
S11303F00E94800188E20E9480018CE00E948001BA
S113040081E00E94800186E00E94800182E00C94D9
S11304108001CF93C82F41E061E081E00E941B017D
S113042040E062E081E00E941B0140E063E081E083
S11304300E941B018BB39C2F907F8F70892B8BBBE9
S113044041E063E081E00E941B018FEC97E001979B
S1130450F1F700C0000040E063E081E00E941B016E
S11304602BB330E1C39FC0011124922F9F70892BBD
S11304708BBB41E063E081E00E941B018FEC97E0BD
S11304800197F1F700C0000040E063E081E00E94C2
S11304901B018FE097E20197F1F700C00000CF91B4
S11304A008959C012B5031092A30310510F483E062
S11304B007C09C01255131092530310518F485E028
S11304C00C94A2009C012A5131092530310510F405
S11304D088E0F6CF4F9710F08AE0F2CF0C94AC008E
S11304E0CF93DF9300D0CDB7DEB741E066E083E081
S11304F00E94B6000E94C8011A8219820E94000359
S11305000E9480000E94C3020E94DF02CE01019675
S11305100E940203CE0101960E94510281E00E94D2
S1130520FB02182F882329F190E00E94090211345C
S113053011F441E003C0113631F440E066E083E099
S11305400E941B0116C0123431F480E00E948C001A
S11305500E94AA000EC0123619F40E94AC0009C011
S1130560133411F48AE503C0133619F480E00E94B1
S1130570C7022FEF89E698E1215080409040E1F7CF
S113058000C00000C3CF0E94A1030C94BE03682FD7
S113059070E080E090E00E9460042CEE31E548EBCE
S11305A05EE30E94EC0420E030E040EA50E40E9464
S11305B0C3030E942F0480E090E00C94AD0341E05B
S11305C066E081E00E94B60040E065E081E00E94C0
S11305D0B60040E064E081E00E94B60040E067E0DD
S11305E081E00E94B600689869986A986B986C9844
S11305F06D986E9A08958FB9779BFECF8FB1089549
S11306000C943E000C9449001F920F920FB60F9267
S113061011242F933F934F935F936F937F938F9303
S11306209F93AF93BF93EF93FF9380916400909156
S11306306500A0916600B09167000196A11DB11DEF
S11306408093640090936500A0936600B093670064
S1130650409168005091690060916A0070916B004C
S113066084179507A607B70781F480916C0082BFB1
S11306701092640010926500109266001092670058
S1130680E0916D00F0916E000995FF91EF91BF919B
S1130690AF919F918F917F916F915F914F913F9116
S11306A02F910F900FBE0F901F9018951F920F92CD
S11306B00FB60F9211242F933F934F935F936F9331
S11306C07F938F939F93AF93BF93EF93FF93809107
S11306D062009091630001968130910529F0909316
S11306E063008093620009C010926300109262005C
S11306F0E0916D00F0916E000995FF91EF91BF912B
S1130700AF919F918F917F916F915F914F913F91A5
S11307102F910F900FBE0F901F901895BB9A83B71F
S1130720886683BF089520E0982F822F64E670E0E6
S11307300E94590561506CBF089583B7816083BFDF
S113074008958D9A8FB582688FBD8EB58C618EBDEC
S113075081E792E097BD86BD08959B01AC01A1E7B6
S1130760B2E00E948F0524E630E040E050E00E94B1
S11307706D05215031093BBD2ABD08958EB58460B5
S11307808EBD08955058BB27AA270E94DA030C9403
S1130790B2040E94A40438F00E94AB0420F039F49F
S11307A09F3F19F426F40C94A1040EF4E095E7FBA2
S11307B00C949B04E92F0E94C30458F3BA176207F0
S11307C073078407950720F079F4A6F50C94E504E3
S11307D00EF4E0950B2EBA2FA02D0B01B901900158
S11307E00C01CA01A0011124FF27591B99F0593F9C
S11307F050F4503E68F11A16F040A22F232F342FE4
S11308004427585FF3CF469537952795A795F04031
S11308105395C9F77EF41F16BA0B620B730B840B46
S1130820BAF09150A1F0FF0FBB1F661F771F881FFE
S1130830C2F70EC0BA0F621F731F841F48F4879556
S113084077956795B795F7959E3F08F0B0CF939548
S1130850880F08F09927EE0F9795879508950E94C1
S1130860CB0488F09F5798F0B92F9927B751B0F06F
S1130870E1F0660F771F881F991F1AF0BA95C9F720
S113088014C0B13091F00E94E504B1E008950C94D5
S1130890E504672F782F8827B85F39F0B93FCCF388
S11308A0869577956795B395D9F73EF4909580959D
S11308B0709561957F4F8F4F9F4F0895E89409C0BD
S11308C097FB3EF490958095709561957F4F8F4F7F
S11308D09F4F9923A9F0F92F96E9BB279395F69595
S11308E0879577956795B795F111F8CFFAF4BB0F13
S11308F011F460FF1BC06F5F7F4F8F4F9F4F16C077
S1130900882311F096E911C0772321F09EE8872F00
S1130910762F05C0662371F096E8862F70E060E0BC
S11309202AF09A95660F771F881FDAF7880F969535
S1130930879597F9089597F99F6780E870E060E0DC
S113094008959FEF80EC089500240A941616170664
S113095018060906089500240A94121613061406AC
S113096005060895092E0394000C11F4882352F00F
S1130970BB0F40F4BF2B11F460FF04C06F5F7F4FC7
S11309808F4F9F4F089557FD9058440F551F59F0AE
S11309905F3F71F04795880F97FB991F61F09F3F68
S11309A079F087950895121613061406551FF2CF91
S11309B04695F1DF08C0161617061806991FF1CFE1
S11309C086957105610508940895E894BB27662708
S11309D07727CB0197F908950E94FF040C94B20481
S11309E00E94A40438F00E94AB0420F0952311F077
S11309F00C949B040C94A10411240C94E6040E940E
S1130A00C30470F3959FC1F3950F50E0551F629F87
S1130A10F001729FBB27F00DB11D639FAA27F00D53
S1130A20B11DAA1F649F6627B00DA11D661F829F7A
S1130A302227B00DA11D621F739FB00DA11D621F5F
S1130A40839FA00D611D221F749F3327A00D611D7C
S1130A50231F849F600D211D822F762F6A2F11245E
S1130A609F5750409AF0F1F088234AF0EE0FFF1F91
S1130A70BB1F661F771F881F91505040A9F79E3FE8
S1130A80510580F00C949B040C94E6045F3FE4F35E
S1130A90983ED4F3869577956795B795F795E7953E
S1130AA09F5FC1F7FE2B880F911D9695879597F947
S1130AB00895AA1BBB1B51E107C0AA1FBB1FA617A1
S1130AC0B70710F0A61BB70B881F991F5A95A9F7F3
S1130AD080959095BC01CD010895A1E21A2EAA1B20
S1130AE0BB1BFD010DC0AA1FBB1FEE1FFF1FA217DA
S1130AF0B307E407F50720F0A21BB30BE40BF50BD7
S1130B00661F771F881F991F1A9469F7609570955F
S1130B10809590959B01AC01BD01CF0108950E9481
S1130B209A05A59F900DB49F900DA49F800D911DD3
S1130B3011240895A29FB001B39FC001A39F700D1B
S1130B40811D1124911DB29F700D811D1124911DD1
S1090B500895F894FFCFA4
S9030000FC
