:100000000C942A000C943C000C943C000C943C0092
:100010000C943C000C943C000C943C000C946D033C
:100020000C943C000C943C000C943C000C941B037E
:100030000C943C000C943C000C943C000C943C0050
:100040000C9452000C943C000C943C000C943C002A
:100050000C943C0011241FBECFE5D8E0DEBFCDBF1D
:1000600020E0A0E6B0E001C01D92AF36B207E1F794
:100070000E94AF020C94CD030C9400003F983E9A6E
:100080003D98389A359A86B1876086B93398379A01
:100090000895369A349BFECF24B130E0FC013183C1
:1000A000208308951F920F920FB60F9211242F9361
:1000B0003F934F938F939F9344B124EF31E0429F3E
:1000C000C001439F900D1124992314F481509C4F3B
:1000D000292F25952595392F330F330B3093610048
:1000E000209360009F918F914F913F912F910F909E
:1000F0000FBE0F901F90189541E063E082E00E94D0
:10010000BB0041E064E082E00E94BB000E94A503C6
:100110000895882319F0813061F0089541E063E08B
:1001200082E00E942C0140E064E082E00E942C0109
:10013000089540E063E082E00E942C0141E064E029
:1001400082E00E942C010895880F982F990F990F33
:10015000890F90E00E94AA0308950E94BA030895AF
:1001600041E063E082E00E942C0141E064E082E033
:100170000E942C0108954423B9F1413009F06BC06D
:10018000813089F028F08230C9F0833011F1089570
:100190002AB381E090E002C0880F991F6A95E2F7C8
:1001A000822B8ABB089527B381E090E002C0880FBC
:1001B000991F6A95E2F7822B87BB089524B381E0EB
:1001C00090E002C0880F991F6A95E2F7822B84BBEA
:1001D000089521B381E090E002C0880F991F6A95CD
:1001E000E2F7822B81BB0895813091F028F08230B4
:1001F000D9F0833029F108952AB381E090E002C05C
:10020000880F991F6A95E2F7809582238ABB08952B
:1002100027B381E090E002C0880F991F6A95E2F74A
:100220008095822387BB089524B381E090E002C0CB
:10023000880F991F6A95E2F78095822384BB089501
:1002400021B381E090E002C0880F991F6A95E2F720
:100250008095822381BB08954423B9F1413009F090
:100260006BC0813089F028F08230C9F0833011F101
:1002700008952BB381E090E002C0880F991F6A9522
:10028000E2F7822B8BBB089528B381E090E002C097
:10029000880F991F6A95E2F7822B88BB089525B3D2
:1002A00081E090E002C0880F991F6A95E2F7822BE7
:1002B00085BB089522B381E090E002C0880F991FAA
:1002C0006A95E2F7822B82BB0895813091F028F085
:1002D0008230D9F0833029F108952BB381E090E08A
:1002E00002C0880F991F6A95E2F7809582238BBB25
:1002F000089528B381E090E002C0880F991F6A95A5
:10030000E2F78095822388BB089525B381E090E0D1
:1003100002C0880F991F6A95E2F78095822385BBFA
:10032000089522B381E090E002C0880F991F6A957A
:10033000E2F78095822382BB0895CF93C82F40E0D7
:1003400061E081E00E942C0140E062E081E00E94D7
:100350002C0140E063E081E00E942C018BB39C2FD4
:10036000907F8F70892B8BBB41E063E081E00E941E
:100370002C018FEC97E00197F1F700C0000040E0FE
:1003800063E081E00E942C012BB330E1C39FC001E8
:100390001124922F9F70892B8BBB41E063E081E099
:1003A0000E942C018FEC97E00197F1F700C000004C
:1003B00040E063E081E00E942C018FE097E201972A
:1003C000F1F700C00000CF91089541E061E081E0C5
:1003D0000E94BB0041E062E081E00E94BB0041E07E
:1003E00063E081E00E94BB0041E064E080E00E94A5
:1003F000BB0041E065E080E00E94BB0041E066E0B8
:1004000080E00E94BB0041E067E080E00E94BB000A
:100410002FEF80E792E0215080409040E1F700C04C
:10042000000083E30E949D0182E30E949D0188E217
:100430000E949D018CE00E949D0181E00E949D012F
:1004400086E00E949D0182E00E949D010895CF9365
:10045000C82F41E061E081E00E942C0140E062E0B1
:1004600081E00E942C0140E063E081E00E942C01C9
:100470008BB39C2F907F8F70892B8BBB41E063E007
:1004800081E00E942C018FEC97E00197F1F700C00A
:10049000000040E063E081E00E942C012BB330E1DA
:1004A000C39FC0011124922F9F70892B8BBB41E009
:1004B00063E081E00E942C018FEC97E00197F1F757
:1004C00000C0000040E063E081E00E942C018FE06A
:1004D00097E20197F1F700C00000CF910895CF9304
:1004E000DF9300D0CDB7DEB79A838983CE01019622
:1004F0000E94180389819A819C012B5031092A306E
:10050000310530F483E00E94A4000E94AD0022C0B7
:100510009C01255131092530310530F485E00E94D8
:10052000A4000E94AD0016C09C012A51310925305B
:10053000310530F488E00E94A4000E94AD000AC09A
:100540004F9730F08AE00E94A4000E94AD0002C0E4
:100550000E94B0000F900F90DF91CF910895CF933C
:10056000DF9300D0CDB7DEB741E065E083E00E94C5
:10057000BB000E94E5011A8219820E9415030E94A5
:100580007C0080E00E9489000E94F40281E00E94C9
:100590001003182F8823F1F090E00E9427021134F5
:1005A00031F441E065E083E00E942C0113C0113674
:1005B00031F440E065E083E00E942C010BC012346E
:1005C00029F4CE0101960E946F0204C0123611F484
:1005D0000E94B0002FEF89E698E1215080409040C2
:1005E000E1F700C00000D2CF41E066E081E00E9468
:1005F000BB0040E065E081E00E94BB0040E064E0B9
:1006000081E00E94BB0040E067E081E00E94BB0007
:10061000689869986A986B986C986D986E9A089526
:100620008FB9779BFECF8FB108950E943E00089549
:100630000E94490008951F920F920FB60F92112445
:100640002F933F934F935F936F937F938F939F93DA
:10065000AF93BF93EF93FF938091640090916500F7
:10066000A0916600B09167000196A11DB11D809315
:10067000640090936500A0936600B093670040917A
:1006800068005091690060916A0070916B00841756
:100690009507A607B70781F480916C0082BF10927E
:1006A0006400109265001092660010926700E0915D
:1006B0006D00F0916E000995FF91EF91BF91AF91A0
:1006C0009F918F917F916F915F914F913F912F916A
:1006D0000F900FBE0F901F9018951F920F920FB69C
:1006E0000F9211242F933F934F935F936F937F93B8
:1006F0008F939F93AF93BF93EF93FF93809162008B
:100700009091630001968130910529F090936300E8
:100710008093620009C01092630010926200E09121
:100720006D00F0916E000995FF91EF91BF91AF912F
:100730009F918F917F916F915F914F913F912F91F9
:100740000F900FBE0F901F901895BB9A83B78866C5
:1007500083BF089520E030E0382F369527953695F1
:100760002795ABE7B4E10E94BE039695879581502B
:100770008CBF089583B7816083BF0895A29FB001A5
:10078000B39FC001A39F700D811D1124911DB29FC5
:0E079000700D811D1124911D0895F894FFCF66
:00000001FF
