:100000000C942A000C943F000C943F000C943F0089
:100010000C943F000C943F000C943F000C943F0064
:100020000C943F000C943F000C943F000C943F0054
:100030000C943F000C943F000C943F000C943F0044
:100040000C943F000C943F000C943F000C943F0034
:100050000C943F0011241FBECFE5D8E0DEBFCDBF1A
:1000600010E0A0E6B0E0E6E5F5E002C005900D92F4
:10007000AC36B107D9F70E9433020C94A9020C9454
:100080000000442379F1413009F05FC0813079F0FC
:1000900028F08230A9F08330E1F008952AB381E09E
:1000A00090E001C0880F6A95EAF7822B2CC027B335
:1000B00081E090E001C0880F6A95EAF7822B2EC09C
:1000C00024B381E090E001C0880F6A95EAF7822BA3
:1000D00030C021B381E090E001C0880F6A95EAF753
:1000E000822B32C0813089F028F08230C9F0833011
:1000F00011F108952AB381E090E001C0880F6A955C
:10010000EAF7809582238ABB089527B381E090E0C7
:1001100001C0880F6A95EAF78095822387BB08950E
:1001200024B381E090E001C0880F6A95EAF78095DA
:10013000822384BB089521B381E090E001C0880F41
:100140006A95EAF78095822381BB0895442379F16B
:10015000413009F05FC0813079F028F08230A9F099
:100160008330E1F008952BB381E090E001C0880F67
:100170006A95EAF7822B2CC028B381E090E001C099
:10018000880F6A95EAF7822B2EC025B381E090E0B4
:1001900001C0880F6A95EAF7822B30C022B381E054
:1001A00090E001C0880F6A95EAF7822B32C0813057
:1001B00089F028F08230C9F0833011F108952BB313
:1001C00081E090E001C0880F6A95EAF7809582236C
:1001D0008BBB089528B381E090E001C0880F6A9539
:1001E000EAF78095822388BB089525B381E090E0EB
:1001F00001C0880F6A95EAF78095822385BB089530
:1002000022B381E090E001C0880F6A95EAF78095FB
:10021000822382BB0895813081F028F08230B9F0CA
:100220008330F9F008952BB381E090E001C0880F8E
:100230006A95EAF782278BBB089528B381E090E0A6
:1002400001C0880F6A95EAF7822788BB089525B315
:1002500081E090E001C0880F6A95EAF7822785BBAC
:10026000089522B381E090E001C0880F6A95EAF713
:10027000822782BB0895CF93C82F40E061E081E0E0
:100280000E94A60040E062E081E00E94A60040E0FB
:1002900063E081E00E94A6008BB39C2F907F8F705B
:1002A000892B8BBB41E063E081E00E94A6008FECCC
:1002B00097E00197F1F700C0000040E063E081E0C3
:1002C0000E94A6002BB330E1C39FC0011124922FDE
:1002D0009F70892B8BBB41E063E081E00E94A60008
:1002E0008FEC97E00197F1F700C0000040E063E079
:1002F00081E00E94A6008FE097E20197F1F700C02D
:100300000000CF91089541E061E081E00E9441004A
:1003100041E062E081E00E94410041E063E081E071
:100320000E94410041E064E080E00E94410041E021
:1003300065E080E00E94410041E066E080E00E94CC
:10034000410041E067E080E00E9441002FEF80E73C
:1003500092E0215080409040E1F700C0000083E32C
:100360000E943B0182E30E943B0188E20E943B0124
:100370008CE00E943B0181E00E943B0186E00E94EC
:100380003B0182E00C943B01CF93C82F41E061E038
:1003900081E00E94A60040E062E081E00E94A600A9
:1003A00040E063E081E00E94A6008BB39C2F907F29
:1003B0008F70892B8BBB41E063E081E00E94A60037
:1003C0008FEC97E00197F1F700C0000040E063E098
:1003D00081E00E94A6002BB330E1C39FC00111242D
:1003E000922F9F70892B8BBB41E063E081E00E94DC
:1003F000A6008FEC97E00197F1F700C0000040E005
:1004000063E081E00E94A6008FE097E20197F1F798
:1004100000C00000CF910895CF93DF9300D0CDB7F7
:10042000DEB790E8998390EC9A83FE01E80FF11D06
:100430008181860F0F900F90DF91CF910C943B013B
:100440000F931F93CF938C01C0E0F801EC0FF11DC7
:100450008081882321F00E94C401CF5FF6CFCF9125
:100460001F910F9108950E9492020E94830141E022
:1004700065E083E00E9441000E946F020E948D02AD
:100480002FEF89E698E1215080409040E1F700C0CD
:1004900000000E94A502C82F0E948802813091F4BA
:1004A00060E070E081E090E00E940C028C2F90E010
:1004B0000E94C40180E690E00E94200265E083E093
:1004C0000E940B01CC23E1F260E070E080E090E05C
:1004D0000E940C028C2F90E00E94C401D1CF40E01A
:1004E00066E081E00E94410041E065E081E00E9419
:1004F000410041E064E081E00E94410041E067E0AA
:1005000081E00E944100689A699A6C9A6E9A0895F7
:100510008FB9779BFECF8FB1089540E064E081E012
:100520000C94A60040E060E083E00E94410041E0BE
:1005300061E083E00E9441008AB188618AB980B598
:10054000866880BD83E389B908955F9BFECF8CB137
:060550000895F894FFCFAE
:0C0556002064656C6976657265640000C5
:00000001FF
