S00C00004D435F312E73726563F8
S11300000C942A000C9447000C9447000C9447006D
S11300100C9447000C9447000C9447000C94470040
S11300200C9447000C9447000C9447000C94470030
S11300300C9447000C94B8020C9447000C944700AD
S11300400C9447000C9447000C9447000C94470010
S11300500C94470011241FBECFE5D8E0DEBFCDBF0E
S113006010E0A0E6B0E0E2E9F5E002C005900D92F0
S1130070AC36B107D9F720E0ACE6B0E001C01D9280
S1130080AD36B207E1F70E943B020C94C7020C9410
S11300900000442379F1413009F05FC0813079F0E8
S11300A028F08230A9F08330E1F008952AB381E08A
S11300B090E001C0880F6A95EAF7822B2CC027B321
S11300C081E090E001C0880F6A95EAF7822B2EC088
S11300D024B381E090E001C0880F6A95EAF7822B8F
S11300E030C021B381E090E001C0880F6A95EAF73F
S11300F0822B32C0813089F028F08230C9F08330FD
S113010011F108952AB381E090E001C0880F6A9547
S1130110EAF7809582238ABB089527B381E090E0B3
S113012001C0880F6A95EAF78095822387BB0895FA
S113013024B381E090E001C0880F6A95EAF78095C6
S1130140822384BB089521B381E090E001C0880F2D
S11301506A95EAF78095822381BB0895442379F157
S1130160413009F05FC0813079F028F08230A9F085
S11301708330E1F008952BB381E090E001C0880F53
S11301806A95EAF7822B2CC028B381E090E001C085
S1130190880F6A95EAF7822B2EC025B381E090E0A0
S11301A001C0880F6A95EAF7822B30C022B381E040
S11301B090E001C0880F6A95EAF7822B32C0813043
S11301C089F028F08230C9F0833011F108952BB3FF
S11301D081E090E001C0880F6A95EAF78095822358
S11301E08BBB089528B381E090E001C0880F6A9525
S11301F0EAF78095822388BB089525B381E090E0D7
S113020001C0880F6A95EAF78095822385BB08951B
S113021022B381E090E001C0880F6A95EAF78095E7
S1130220822382BB0895813081F028F08230B9F0B6
S11302308330F9F008952BB381E090E001C0880F7A
S11302406A95EAF782278BBB089528B381E090E092
S113025001C0880F6A95EAF7822788BB089525B301
S113026081E090E001C0880F6A95EAF7822785BB98
S1130270089522B381E090E001C0880F6A95EAF7FF
S1130280822782BB0895CF93C82F40E061E081E0CC
S11302900E94AE0040E062E081E00E94AE0040E0D7
S11302A063E081E00E94AE008BB39C2F907F8F703F
S11302B0892B8BBB41E063E081E00E94AE008FECB0
S11302C097E00197F1F700C0000040E063E081E0AF
S11302D00E94AE002BB330E1C39FC0011124922FC2
S11302E09F70892B8BBB41E063E081E00E94AE00EC
S11302F08FEC97E00197F1F700C0000040E063E065
S113030081E00E94AE008FE097E20197F1F700C010
S11303100000CF91089541E061E081E00E9449002E
S113032041E062E081E00E94490041E063E081E055
S11303300E94490041E064E080E00E94490041E0FD
S113034065E080E00E94490041E066E080E00E94B0
S1130350490041E067E080E00E9449002FEF80E718
S113036092E0215080409040E1F700C0000083E318
S11303700E94430182E30E94430188E20E944301F8
S11303808CE00E94430181E00E94430186E00E94C8
S1130390430182E00C944301CF93C82F41E061E014
S11303A081E00E94AE0040E062E081E00E94AE0085
S11303B040E063E081E00E94AE008BB39C2F907F0D
S11303C08F70892B8BBB41E063E081E00E94AE001B
S11303D08FEC97E00197F1F700C0000040E063E084
S11303E081E00E94AE002BB330E1C39FC001112411
S11303F0922F9F70892B8BBB41E063E081E00E94C8
S1130400AE008FEC97E00197F1F700C0000040E0E8
S113041063E081E00E94AE008FE097E20197F1F77C
S113042000C00000CF910895CF93DF9300D0CDB7E3
S1130430DEB790E8998390EC9A83FE01E80FF11DF2
S11304408181860F0F900F90DF91CF910C9443011F
S11304500F931F93CF938C01C0E0F801EC0FF11DB3
S11304608081882321F00E94CC01CF5FF6CFCF9109
S11304701F910F91089580916C000E94A2020E9426
S11304808B0141E065E083E00E9449000E947F0205
S11304900E949D022FEF89E698E121508040904010
S11304A0E1F700C0000080916C00882399F3C091AB
S11304B06C0060E070E080E090E00E9414028091A3
S11304C06C0090E00E94CC0180916C000E94980224
S11304D010926C008130F1F660E070E081E090E011
S11304E00E9414028C2F90E00E94CC0180E690E0E0
S11304F00E94280265E083E00E941301CBCF40E014
S113050066E081E00E94490041E065E081E00E94EC
S1130510490041E064E081E00E94490041E067E075
S113052081E00E944900689A699A6C9A6E9A0895CB
S11305308FB9779BFECF8FB1089540E064E081E0EE
S11305400C94AE0040E060E083E00E94490041E08A
S113055061E083E00E9449008AB1886D8AB98FB74F
S113056080688FBF80B5866880BD83E389B90895AC
S11305701F920F920FB60F9211248F938CB1809318
S11305806C008F910F900FBE0F901F901895F894E8
S1050590FFCF97
S10F05922064656C697665726564000085
S9030000FC
